:200000001CC036C035C034C033C032C031C030C02FC05AC02DC02CC02BC02AC029C028C0D7
:2000200027C026C025C086C187C188C18CC190C192C194C197C19AC10BC211241FBECFE5AA
:20004000D4E0DEBFCDBF10E0A0E6B0E0ECE7F1E102C005900D92AC38B107D9F720E0ACE822
:20006000B0E001C01D92AA3DB207E1F7E9D784C8C7CFE199FECF8C5E8EBB1FBAE09A8DB359
:2000800008951F93CF93DF931F92CDB7DEB714E1180F812F6983EDDF6981861749F0E199B5
:2000A000FECFF8941EBB1FBA6DBBE29AE19A78940F90DF91CF911F91089583B7826083BFF0
:2000C00089B7816089BF08951F920F920FB60F9211248F938091BB008F5F8093BB00809172
:2000E000BA008F5F8093BA008F910F900FBE0F901F901895A1988DE78150F1F095E09A9501
:20010000F1F70000999BF8CFA998A19AEFEBF3E03197F1F700C00000A198FAEBFA95F1F7CE
:2001200000C083B38695817091E08927E3E3F3E03197F1F700C000000895A998A19A80FFFB
:200140000AC08AE18A95F1F700C0A99A82E98A95F1F700C008958DEA8A95F1F70000A99AD0
:200160008DE08A95F1F700000895A19AA99888E08A95F1F7A1989AE19A95F1F700C083B3C2
:200180009DE89A95F1F70000869581700895EF92FF920F931F93CF93DF931F92CDB7DEB716
:2001A000082F88E0E82EF12C11E081E0912F902309F480E06983C1DF110F81E0E81AF10843
:2001C0006981E114F10489F7611102C0A198A9980F90DF91CF911F910F91FF90EF900895B3
:2001E0000F931F93CF93DF9308E010E0D1E0C0E0BCDF8111CD2BDD0F01501109C9F78C2FB7
:20020000DF91CF911F910F910895A0988DE78150E1F095E09A95F1F70000989BF8CFA8980D
:20022000A09AEFEBF3E03197F1F700C00000A098FAEBFA95F1F700C083B380958170E3E311
:20024000F3E03197F1F700C000000895A898A09A80FF0AC08AE18A95F1F700C0A89A82E91C
:200260008A95F1F700C008958DEA8A95F1F70000A89A8DE08A95F1F700000895A09AA898CF
:2002800088E08A95F1F7A0989AE19A95F1F700C083B39DE89A95F1F7000081700895EF9284
:2002A000FF920F931F93CF93DF931F92CDB7DEB7082F88E0E82EF12C11E081E0912F902324
:2002C00009F480E06983C2DF110F81E0E81AF1086981E114F10489F7611102C0A098A898B8
:2002E0000F90DF91CF911F910F91FF90EF9008950F931F93CF93DF9308E010E0D1E0C0E043
:20030000BDDF8111CD2BDD0F01501109C9F78C2FDF91CF911F910F910895CF93E091C7008E
:200320008E2F90E08A30910508F000C1FC01ED5EFF4F0994DFDE0CC068DF0DC061E084E40E
:2003400026DFD8DE7FC061E084E4A9DF5EDF7AC061E08CEC05C061E08CEC06C061E08EEB44
:2003600016DF70C061E08EEB9ADF6CC0C9E0E1EBF0E0DF014C2F1D924A95E9F731DF8093C8
:20038000B1002EDF8093B200282F30E0322F22278091B100282B822F8F708093AE0054E00F
:2003A000369527955A95E1F73093B0002093AF00A6E08A9FC00111246AE070E0B6D6462FDA
:2003C0002093D6008091D400809587FF1AC051E8580F852F6AE09DD6940F9A3018F490938D
:2003E000D70006C09A509093D7002F5F2093D600852F6AE08ED68093AD009091D600890FB4
:200400001FC05FE7581BEAE0852F6E2F82D6491B4093D7004A3058F0842F80958093AC007A
:2004200078D6C91BC093D70021502093D600852F6AE06FD68093AD009091D600981B892F01
:200440008093D6008091C7008F5F8093C7006EC0C9E0E3EAF0E0DF014C2F1D924A95E9F7D6
:2004600047DF8093A30044DF8093A400282F30E0322F22278091A300282B822F8F708093EB
:20048000A00094E0369527959A95E1F73093A2002093A100A6E08A9FC00111246AE070E0C2
:2004A00044D6462F2093D8008091D500809587FF1AC051E8580F852F6AE02BD6940F9A30BB
:2004C00018F49093D90006C09A509093D9002F5F2093D800852F6AE01CD680939F0090918C
:2004E000D800890F1FC05FE7581BEAE0852F6E2F10D6491B4093D9004A3058F0842F809559
:2005000080939E0006D6C91BC093D90021502093D800852F6AE0FDD580939F009091D800C7
:20052000981B892F8093D8001092C700CF91089520E030E090E0AC01022E02C0559547951A
:200540000A94E2F740FF02C0929A01C09298919A91982F5F3F4F2830310569F70895CF93AF
:20056000C82F862F9098E4DF8C2FE2DF909ACF9108958091C600869B02C08C7F14C080FD2B
:2005800004C087608093C60014C020919C0030919D002F5F3F4F30939D0020939C00203D30
:2005A000374038F088608093C60010929D0010929C008091C60087FF1EC087990BC0909117
:2005C0009B00911113C091E090939B0080628093C6000CC085990AC090919B00911106C049
:2005E00080648093C60081E080939B00879B03C0859910929B008091C60087FF14C090919D
:20060000C500992329F080628093C6001092C5008091C400882339F08091C60080648093A7
:20062000C6001092C40008950F931F93CF939091C6008091640092FF14C081FF12C09B7F0E
:200640009093C6002091600030916100220F331F2115310511F421E030E0309361002093A2
:2006600060009091C60093FF2DC0937F9093C60080FF12C08C7F82608093640021E030E0F3
:20068000309361002093600090689093C6001092C5001092C40016C081FF14C08C7F81605F
:2006A0008093640008EC10E0C0E0F80161918F018C2FE7DCCF5FC331C1F78091C6008F778F
:2006C0008093C6002091640020FFABC08091D6004AE0642F1ED5E92F1CD5A92FB0E0A159A0
:2006E000BF4F8C9180939A0030917A00F0E0E159FF4F8081832B809399008091D70009D56E
:20070000E92FF0E0E159FF4F80818093980050917B00509397008091D800FBD4E92FF9D44A
:20072000A92FB0E0A159BF4F8C9180939600F0E0E159FF4F8081832B809395008091D900EA
:20074000E8D4E92FF0E0E159FF4F808180939400509393008091D000882321F0852F832B50
:20076000809397008091D100882319F0352B309393008091D200882339F090919700809103
:200780008100892B809397008091D300882339F09091930080918100892B8093930025FFFE
:2007A00016C08091C60082FF06C02F7D209364008B7F8093C6008091640087FF08C010923A
:2007C0009700109298001092990010929A009091640096FF1BC08091C60082FF0BC09F7B9F
:2007E0009093640090916500977E909365008B7F8093C6008091640087FF08C01092930074
:200800001092940010929500109296008091650082FF25C38091640087FF21C31092930040
:200820001EC321FF1CC3809160009091610081FF5EC08091C60085FF18C08F7D8093C6002F
:200840008091C9008F5F8A3018F48093C90007C01092C9008091C8008F5F8093C800809149
:20086000C800843610F01092C8008091C60086FF16C08F7B8093C6008091C90081508A3012
:2008800018F48093C9000BC089E08093C9008091C8008150843608F083E68093C8008091AF
:2008A000700080939A001092990080917C008093980080916F00809397008091C8002AE09B
:2008C000622F27D4E92F25D4A92FB0E0A159BF4F8C9180939600F0E0E159FF4F90818091CB
:2008E0007A00892B809395008091C9005DC082FF68C08091C60085FF12C08F7D8093C60070
:200900008091CB008F5F8A3018F48093CB0007C01092CB008091CA008F5F8093CA0080917E
:20092000C60086FF1AC08F7B8093C6008091CB00811109C089E08093CB008091CA00815085
:200940008093CA0003C081508093CB008091CA00811103C083E68093CA008091700080933E
:200960009A001092990080917D008093980080917E00809397008091CA002AE0622FC9D31E
:20098000E92FC7D3A92FB0E0A159BF4F8C9180939600F0E0E159FF4F908180917A00892BC7
:2009A000809395008091CB00B4D3E92FF0E0E159FF4F80818093940080917B0080939300E2
:2009C0004EC283FF5CC08091C60085FF12C08F7D8093C6008091CD008F5F8A3018F48093B2
:2009E000CD0007C01092CD008091CC008F5F8093CC008091C60086FF1AC08F7B8093C60031
:200A00008091CD00811109C089E08093CD008091CC0081508093CC0003C081508093CD0053
:200A20008091CC00811103C083E68093CC008091710080939A001092990080917C00809332
:200A4000980080916F00809397008091CC002AE0622F5FD3E92F5DD3A92FB0E0A159BF4F72
:200A60008C9180939600F0E0E159FF4F908180917A00892B809395008091CD0095CF84FF9B
:200A80005CC08091C60085FF12C08F7D8093C6008091CF008F5F8A3018F48093CF0007C0EB
:200AA0001092CF008091CE008F5F8093CE008091C60086FF1AC08F7B8093C6008091CF001E
:200AC000811109C089E08093CF008091CE0081508093CE0003C081508093CF008091CE008A
:200AE000811103C083E68093CE008091710080939A001092990080917D00809398008091A3
:200B00007E00809397008091CE002AE0622F01D3E92FFFD2A92FB0E0A159BF4F8C918093D6
:200B20009600F0E0E159FF4F908180917A00892B809395008091CF0037CF85FF2EC0809166
:200B4000C60085FF06C08F7D8093C60081E08093D0008091C60086FF05C08F7B8093C60058
:200B60001092D0008091740080939A0080918200809399009091880090939800909170009D
:200B800090939700909396001092950090918700909394009091D00093C086FF30C0809182
:200BA000C60085FF06C08F7D8093C60081E08093D1008091C60086FF05C08F7B8093C600F7
:200BC0001092D1008091740080939A0080918200809399009091880090939800909170003C
:200BE0009093970090917100909396001092950090918700909394009091D10061C087FFC1
:200C000030C08091C60085FF06C08F7D8093C60081E08093D2008091C60086FF05C08F7B6D
:200C20008093C6001092D2008091740080939A008091820080939900909188009093980092
:200C4000909171009093970090917000909396001092950090918700909394009091D20075
:200C60002FC090FF32C08091C60085FF06C08F7D8093C60081E08093D3008091C60086FF5B
:200C800005C08F7B8093C6001092D3008091740080939A008091820080939900909188001D
:200CA000909398009091710090939700909396001092950090918700909394009091D300EA
:200CC00091117CCE8091830079CE80FF21C02091740020939A008091870080939900809126
:200CE00083008093980080918900809397001092960080917A0090917000982B90939500B3
:200D000090917200892B8093940020939300A7C091FF3EC08091C60085FF08C08F7D809368
:200D2000C6008091D40081508093D4008091C60086FF08C08F7B8093C6008091D4008F5F76
:200D40008093D4008091D40080958F3730F08F57809392001092960008C09FE7981B9093E5
:200D6000920080918B008093960080918A0080939A00809187008093990080918600809366
:200D800098008091700080939700309192003FC092FF5DC08091C60085FF08C08F7D80934E
:200DA000C6008091D50081508093D5008091C60086FF08C08F7B8093C6008091D5008F5FF3
:200DC0008093D5008091D50080958F3730F08F57809391001092960008C09FE7981B909364
:200DE000910080918B008093960080918A0080939A008091870080939900809186008093E7
:200E00009800809171008093970030919100832F64E67FD12AE0622F7CD1E92FF0E0E15966
:200E2000FF4F808180939500832F73D1E92F71D1A92FB0E0A159BF4F9C9180917A00892B8F
:200E400080939400F0E0E159FF4F8081B7CD93FF06C081E090E090936100809360006091FD
:200E6000670080919A007BDB609168008091990076DB609169008091980071DB60916A000C
:200E8000809197006CDB60916B008091960067DB60916C008091950062DB60916D0080916F
:200EA00094005DDB60916E008091930058DB60E080E0CF911F910F9152CB8091620090912F
:200EC0006300009781F001979093630080936200892B49F481E08093BC0084E690E09093F6
:200EE000C0008093BF008091C1009091C200009729F001979093C2008093C1008091C300D6
:200F0000882359F081508093C30007DA8091C300811103C084E68093C30040919000442324
:200F200009F450C020918E0030918F008091BD009091BE00232B51F4009741F090938F005B
:200F400080938E0010928D0010928C0020918C0030918D000097A9F02115310591F401974F
:200F60009093BE008093BD00892B09F03FC0939880918E0090918F0090938D0080938C004B
:200F800008952115310591F1892B81F52150310930938D0020938C00232B41F58FEF840FCD
:200FA00080939000882349F080918E0090918F009093BE008093BD00089510928F0010923A
:200FC0008E0008958091BC00882381F0809390001092BC008091BF009091C0009093BE006A
:200FE0008093BD001092C0001092BF0008958091C1009091C200892BA1F484EF91E09093BC
:20100000C2008093C100B39B02C0C39801C0C39A8091640087FF02C08F7701C08068809332
:20102000640008958091BA00823048F08091BD009091BE00892B09F0939A1092BA0008957A
:201040008A9A899A889ABB9A82B3806E82BB8B9A84E10FD8811104C008EC10E0C0E02DC03A
:2010600060E084E10ED881E08093CF008093CE008093CD008093CC008093CB008093CA0047
:201080008093C9008093C8001092D3001092D2001092D1001092D0008FE78093D50080935A
:2010A000D40008EC10E0C0E0F80161918F018C2FE8D7CF5FCE30C1F7CFCF8C2FDAD7F801FC
:2010C00081938F01CF5FCE30C1F7F7D7789484E690E09093C0008093BF0081E08093BC00EF
:2010E00084EF91E09093C2008093C10088EC8093C30098DF8091BB008430D8F31092BB00EA
:20110000DCDE75DF36DA90DA1092630010926200F0CF991B79E004C0991F961708F0961BA0
:20112000881F7A95C9F78095089597FB072E16F4009406D077FD08D00BD007FC05D03EF41B
:20114000909581959F4F0895709561957F4F0895AA1BBB1B51E107C0AA1FBB1FA617B707B1
:2011600010F0A61BB70B881F991F5A95A9F780959095BC01CD010895F894FFCF0100D0076A
:20118000010400BFDFEFFB7FFEFDF7F514D95D3C6DED54FD7D000278A1BCA0E9F8018CE8E1
:0811A000ADFC888D9DA9E1085A
:00000001FF
